{
  "contractName": "Tourisme",
  "abi": [
    {
      "inputs": [
        {
          "internalType": "address",
          "name": "owner",
          "type": "address"
        }
      ],
      "stateMutability": "nonpayable",
      "type": "constructor"
    },
    {
      "anonymous": false,
      "inputs": [
        {
          "indexed": true,
          "internalType": "address",
          "name": "previousOwner",
          "type": "address"
        },
        {
          "indexed": true,
          "internalType": "address",
          "name": "newOwner",
          "type": "address"
        }
      ],
      "name": "OwnershipTransferred",
      "type": "event"
    },
    {
      "inputs": [
        {
          "internalType": "address",
          "name": "",
          "type": "address"
        }
      ],
      "name": "clients",
      "outputs": [
        {
          "internalType": "string",
          "name": "name",
          "type": "string"
        },
        {
          "internalType": "string",
          "name": "email",
          "type": "string"
        },
        {
          "internalType": "uint256",
          "name": "dateRegistration",
          "type": "uint256"
        }
      ],
      "stateMutability": "view",
      "type": "function"
    },
    {
      "inputs": [
        {
          "internalType": "uint256",
          "name": "",
          "type": "uint256"
        }
      ],
      "name": "offers",
      "outputs": [
        {
          "internalType": "string",
          "name": "destination",
          "type": "string"
        },
        {
          "internalType": "uint256",
          "name": "priceTransport",
          "type": "uint256"
        },
        {
          "internalType": "uint256",
          "name": "priceTravel",
          "type": "uint256"
        },
        {
          "internalType": "uint256",
          "name": "priceRestauration",
          "type": "uint256"
        },
        {
          "internalType": "uint256",
          "name": "priceActivity",
          "type": "uint256"
        },
        {
          "internalType": "uint256",
          "name": "priceTours",
          "type": "uint256"
        }
      ],
      "stateMutability": "view",
      "type": "function"
    },
    {
      "inputs": [],
      "name": "owner",
      "outputs": [
        {
          "internalType": "address",
          "name": "",
          "type": "address"
        }
      ],
      "stateMutability": "view",
      "type": "function"
    },
    {
      "inputs": [],
      "name": "renounceOwnership",
      "outputs": [],
      "stateMutability": "nonpayable",
      "type": "function"
    },
    {
      "inputs": [
        {
          "internalType": "address",
          "name": "",
          "type": "address"
        },
        {
          "internalType": "uint256",
          "name": "",
          "type": "uint256"
        }
      ],
      "name": "reservationByUser",
      "outputs": [
        {
          "internalType": "bool",
          "name": "isTransport",
          "type": "bool"
        },
        {
          "internalType": "bool",
          "name": "isTravel",
          "type": "bool"
        },
        {
          "internalType": "bool",
          "name": "isRestauration",
          "type": "bool"
        },
        {
          "internalType": "bool",
          "name": "isActivity",
          "type": "bool"
        },
        {
          "internalType": "bool",
          "name": "isTours",
          "type": "bool"
        },
        {
          "internalType": "uint256",
          "name": "priceinTokens",
          "type": "uint256"
        }
      ],
      "stateMutability": "view",
      "type": "function"
    },
    {
      "inputs": [
        {
          "internalType": "address",
          "name": "newOwner",
          "type": "address"
        }
      ],
      "name": "transferOwnership",
      "outputs": [],
      "stateMutability": "nonpayable",
      "type": "function"
    },
    {
      "inputs": [
        {
          "internalType": "address",
          "name": "tourAddress",
          "type": "address"
        }
      ],
      "name": "setTourToken",
      "outputs": [],
      "stateMutability": "nonpayable",
      "type": "function"
    },
    {
      "inputs": [
        {
          "internalType": "string",
          "name": "_name",
          "type": "string"
        },
        {
          "internalType": "string",
          "name": "_email",
          "type": "string"
        }
      ],
      "name": "register",
      "outputs": [],
      "stateMutability": "nonpayable",
      "type": "function"
    },
    {
      "inputs": [
        {
          "internalType": "address",
          "name": "_addr",
          "type": "address"
        }
      ],
      "name": "isRegistered",
      "outputs": [
        {
          "internalType": "bool",
          "name": "",
          "type": "bool"
        }
      ],
      "stateMutability": "view",
      "type": "function"
    },
    {
      "inputs": [],
      "name": "clientId",
      "outputs": [
        {
          "internalType": "uint256",
          "name": "",
          "type": "uint256"
        }
      ],
      "stateMutability": "view",
      "type": "function"
    },
    {
      "inputs": [
        {
          "internalType": "address",
          "name": "_addr",
          "type": "address"
        }
      ],
      "name": "getClient",
      "outputs": [
        {
          "components": [
            {
              "internalType": "string",
              "name": "name",
              "type": "string"
            },
            {
              "internalType": "string",
              "name": "email",
              "type": "string"
            },
            {
              "internalType": "uint256",
              "name": "dateRegistration",
              "type": "uint256"
            }
          ],
          "internalType": "struct Tourisme.Client",
          "name": "",
          "type": "tuple"
        }
      ],
      "stateMutability": "view",
      "type": "function"
    },
    {
      "inputs": [
        {
          "internalType": "string",
          "name": "_destination",
          "type": "string"
        },
        {
          "internalType": "uint256",
          "name": "_priceTransport",
          "type": "uint256"
        },
        {
          "internalType": "uint256",
          "name": "_priceTravel",
          "type": "uint256"
        },
        {
          "internalType": "uint256",
          "name": "_priceRestauration",
          "type": "uint256"
        },
        {
          "internalType": "uint256",
          "name": "_priceActivity",
          "type": "uint256"
        },
        {
          "internalType": "uint256",
          "name": "_priceTours",
          "type": "uint256"
        }
      ],
      "name": "addOffer",
      "outputs": [],
      "stateMutability": "nonpayable",
      "type": "function"
    },
    {
      "inputs": [],
      "name": "offerId",
      "outputs": [
        {
          "internalType": "uint256",
          "name": "",
          "type": "uint256"
        }
      ],
      "stateMutability": "view",
      "type": "function"
    },
    {
      "inputs": [
        {
          "internalType": "uint256",
          "name": "_id",
          "type": "uint256"
        }
      ],
      "name": "getOffer",
      "outputs": [
        {
          "components": [
            {
              "internalType": "string",
              "name": "destination",
              "type": "string"
            },
            {
              "internalType": "uint256",
              "name": "priceTransport",
              "type": "uint256"
            },
            {
              "internalType": "uint256",
              "name": "priceTravel",
              "type": "uint256"
            },
            {
              "internalType": "uint256",
              "name": "priceRestauration",
              "type": "uint256"
            },
            {
              "internalType": "uint256",
              "name": "priceActivity",
              "type": "uint256"
            },
            {
              "internalType": "uint256",
              "name": "priceTours",
              "type": "uint256"
            }
          ],
          "internalType": "struct Tourisme.Offer",
          "name": "",
          "type": "tuple"
        }
      ],
      "stateMutability": "view",
      "type": "function"
    },
    {
      "inputs": [
        {
          "internalType": "uint256",
          "name": "_id",
          "type": "uint256"
        },
        {
          "internalType": "bool",
          "name": "_isTransport",
          "type": "bool"
        },
        {
          "internalType": "bool",
          "name": "_isTravel",
          "type": "bool"
        },
        {
          "internalType": "bool",
          "name": "_isRestauration",
          "type": "bool"
        },
        {
          "internalType": "bool",
          "name": "_isActivities",
          "type": "bool"
        },
        {
          "internalType": "bool",
          "name": "_isTours",
          "type": "bool"
        }
      ],
      "name": "chooseOffer",
      "outputs": [],
      "stateMutability": "nonpayable",
      "type": "function"
    },
    {
      "inputs": [],
      "name": "reservationId",
      "outputs": [
        {
          "internalType": "uint256",
          "name": "",
          "type": "uint256"
        }
      ],
      "stateMutability": "view",
      "type": "function"
    },
    {
      "inputs": [
        {
          "internalType": "uint256",
          "name": "_id",
          "type": "uint256"
        }
      ],
      "name": "getReservation",
      "outputs": [
        {
          "components": [
            {
              "internalType": "bool",
              "name": "isTransport",
              "type": "bool"
            },
            {
              "internalType": "bool",
              "name": "isTravel",
              "type": "bool"
            },
            {
              "internalType": "bool",
              "name": "isRestauration",
              "type": "bool"
            },
            {
              "internalType": "bool",
              "name": "isActivity",
              "type": "bool"
            },
            {
              "internalType": "bool",
              "name": "isTours",
              "type": "bool"
            },
            {
              "internalType": "uint256",
              "name": "priceinTokens",
              "type": "uint256"
            }
          ],
          "internalType": "struct Tourisme.Reservation",
          "name": "",
          "type": "tuple"
        }
      ],
      "stateMutability": "view",
      "type": "function"
    },
    {
      "inputs": [
        {
          "internalType": "uint256",
          "name": "_id",
          "type": "uint256"
        }
      ],
      "name": "reserveByClient",
      "outputs": [],
      "stateMutability": "nonpayable",
      "type": "function"
    }
  ],
  "bytecode": "0x60806040523480156200001157600080fd5b506040516200278f3803806200278f8339818101604052810190620000379190620002ee565b600062000049620000ff60201b60201c565b9050806000806101000a81548173ffffffffffffffffffffffffffffffffffffffff021916908373ffffffffffffffffffffffffffffffffffffffff1602179055508073ffffffffffffffffffffffffffffffffffffffff16600073ffffffffffffffffffffffffffffffffffffffff167f8be0079c531659141344cd1fd0a4f28419497f9722a3daafe3b4186f6b6457e060405160405180910390a350620000f8816200010760201b60201c565b5062000467565b600033905090565b62000117620000ff60201b60201c565b73ffffffffffffffffffffffffffffffffffffffff1660008054906101000a900473ffffffffffffffffffffffffffffffffffffffff1673ffffffffffffffffffffffffffffffffffffffff1614620001a7576040517f08c379a00000000000000000000000000000000000000000000000000000000081526004016200019e90620003e6565b60405180910390fd5b600073ffffffffffffffffffffffffffffffffffffffff168173ffffffffffffffffffffffffffffffffffffffff1614156200021a576040517f08c379a00000000000000000000000000000000000000000000000000000000081526004016200021190620003c4565b60405180910390fd5b8073ffffffffffffffffffffffffffffffffffffffff1660008054906101000a900473ffffffffffffffffffffffffffffffffffffffff1673ffffffffffffffffffffffffffffffffffffffff167f8be0079c531659141344cd1fd0a4f28419497f9722a3daafe3b4186f6b6457e060405160405180910390a3806000806101000a81548173ffffffffffffffffffffffffffffffffffffffff021916908373ffffffffffffffffffffffffffffffffffffffff16021790555050565b600081519050620002e8816200044d565b92915050565b6000602082840312156200030157600080fd5b60006200031184828501620002d7565b91505092915050565b60006200032960268362000408565b91507f4f776e61626c653a206e6577206f776e657220697320746865207a65726f206160008301527f64647265737300000000000000000000000000000000000000000000000000006020830152604082019050919050565b60006200039160208362000408565b91507f4f776e61626c653a2063616c6c6572206973206e6f7420746865206f776e65726000830152602082019050919050565b60006020820190508181036000830152620003df816200031a565b9050919050565b60006020820190508181036000830152620004018162000382565b9050919050565b600082825260208201905092915050565b600062000426826200042d565b9050919050565b600073ffffffffffffffffffffffffffffffffffffffff82169050919050565b620004588162000419565b81146200046457600080fd5b50565b61231880620004776000396000f3fe608060405234801561001057600080fd5b50600436106101165760003560e01c80638da5cb5b116100a2578063cf919ed711610071578063cf919ed7146102e6578063d57763c314610304578063ddba6d7214610334578063e12a330714610369578063f2fde38b1461038557610116565b80638da5cb5b1461024c578063a0e328701461026a578063badb38f61461029a578063c3c5a547146102b657610116565b80634579268a116100e95780634579268a1461018d57806361eed2a9146101bd5780636bb3471a146101ef578063715018a61461020d5780638a72ea6a1461021757610116565b8063096c6a1e1461011b57806321ce9f91146101375780632d266b18146101555780633ffbd47f14610171575b600080fd5b61013560048036038101906101309190611934565b6103a1565b005b61013f6104e3565b60405161014c919061211a565b60405180910390f35b61016f600480360381019061016a9190611863565b6104f4565b005b61018b600480360381019061018691906118c8565b6105cd565b005b6101a760048036038101906101a291906119d5565b610701565b6040516101b491906120dd565b60405180910390f35b6101d760048036038101906101d29190611863565b610802565b6040516101e693929190611f6e565b60405180910390f35b6101f761095c565b604051610204919061211a565b60405180910390f35b61021561096d565b005b610231600480360381019061022c91906119d5565b610ac0565b60405161024396959493929190611fb3565b60405180910390f35b610254610b94565b6040516102619190611e7a565b60405180910390f35b610284600480360381019061027f9190611863565b610bbd565b60405161029191906120bb565b60405180910390f35b6102b460048036038101906102af91906119d5565b610df9565b005b6102d060048036038101906102cb9190611863565b610f88565b6040516102dd9190611ef2565b60405180910390f35b6102ee610fd7565b6040516102fb919061211a565b60405180910390f35b61031e600480360381019061031991906119d5565b610fe8565b60405161032b91906120ff565b60405180910390f35b61034e6004803603810190610349919061188c565b6110e3565b60405161036096959493929190611f0d565b60405180910390f35b610383600480360381019061037e91906119fe565b61116d565b005b61039f600480360381019061039a9190611863565b611459565b005b6103a961161b565b73ffffffffffffffffffffffffffffffffffffffff1660008054906101000a900473ffffffffffffffffffffffffffffffffffffffff1673ffffffffffffffffffffffffffffffffffffffff1614610436576040517f08c379a000000000000000000000000000000000000000000000000000000000815260040161042d9061209b565b60405180910390fd5b6104406003611623565b6040518060c00160405280878152602001868152602001858152602001848152602001838152602001828152506009600061047b6003611639565b815260200190815260200160002060008201518160000190805190602001906104a592919061169c565b506020820151816001015560408201518160020155606082015181600301556080820151816004015560a08201518160050155905050505050505050565b60006104ef6003611639565b905090565b6104fc61161b565b73ffffffffffffffffffffffffffffffffffffffff1660008054906101000a900473ffffffffffffffffffffffffffffffffffffffff1673ffffffffffffffffffffffffffffffffffffffff1614610589576040517f08c379a00000000000000000000000000000000000000000000000000000000081526004016105809061209b565b60405180910390fd5b80600160006101000a81548173ffffffffffffffffffffffffffffffffffffffff021916908373ffffffffffffffffffffffffffffffffffffffff16021790555050565b6000600860003373ffffffffffffffffffffffffffffffffffffffff1673ffffffffffffffffffffffffffffffffffffffff1681526020019081526020016000206002015414610652576040517f08c379a00000000000000000000000000000000000000000000000000000000081526004016106499061203b565b60405180910390fd5b61065c6002611623565b604051806060016040528083815260200182815260200142815250600860003373ffffffffffffffffffffffffffffffffffffffff1673ffffffffffffffffffffffffffffffffffffffff16815260200190815260200160002060008201518160000190805190602001906106d292919061169c565b5060208201518160010190805190602001906106ef92919061169c565b50604082015181600201559050505050565b61070961171c565b600960008381526020019081526020016000206040518060c0016040529081600082018054600181600116156101000203166002900480601f0160208091040260200160405190810160405280929190818152602001828054600181600116156101000203166002900480156107c05780601f10610795576101008083540402835291602001916107c0565b820191906000526020600020905b8154815290600101906020018083116107a357829003601f168201915b50505050508152602001600182015481526020016002820154815260200160038201548152602001600482015481526020016005820154815250509050919050565b6008602052806000526040600020600091509050806000018054600181600116156101000203166002900480601f0160208091040260200160405190810160405280929190818152602001828054600181600116156101000203166002900480156108ae5780601f10610883576101008083540402835291602001916108ae565b820191906000526020600020905b81548152906001019060200180831161089157829003601f168201915b505050505090806001018054600181600116156101000203166002900480601f01602080910402602001604051908101604052809291908181526020018280546001816001161561010002031660029004801561094c5780601f106109215761010080835404028352916020019161094c565b820191906000526020600020905b81548152906001019060200180831161092f57829003601f168201915b5050505050908060020154905083565b60006109686002611639565b905090565b61097561161b565b73ffffffffffffffffffffffffffffffffffffffff1660008054906101000a900473ffffffffffffffffffffffffffffffffffffffff1673ffffffffffffffffffffffffffffffffffffffff1614610a02576040517f08c379a00000000000000000000000000000000000000000000000000000000081526004016109f99061209b565b60405180910390fd5b600073ffffffffffffffffffffffffffffffffffffffff1660008054906101000a900473ffffffffffffffffffffffffffffffffffffffff1673ffffffffffffffffffffffffffffffffffffffff167f8be0079c531659141344cd1fd0a4f28419497f9722a3daafe3b4186f6b6457e060405160405180910390a360008060006101000a81548173ffffffffffffffffffffffffffffffffffffffff021916908373ffffffffffffffffffffffffffffffffffffffff160217905550565b6009602052806000526040600020600091509050806000018054600181600116156101000203166002900480601f016020809104026020016040519081016040528092919081815260200182805460018160011615610100020316600290048015610b6c5780601f10610b4157610100808354040283529160200191610b6c565b820191906000526020600020905b815481529060010190602001808311610b4f57829003601f168201915b5050505050908060010154908060020154908060030154908060040154908060050154905086565b60008060009054906101000a900473ffffffffffffffffffffffffffffffffffffffff16905090565b610bc5611752565b610bcd61161b565b73ffffffffffffffffffffffffffffffffffffffff1660008054906101000a900473ffffffffffffffffffffffffffffffffffffffff1673ffffffffffffffffffffffffffffffffffffffff1614610c5a576040517f08c379a0000000000000000000000000000000000000000000000000000000008152600401610c519061209b565b60405180910390fd5b600860008373ffffffffffffffffffffffffffffffffffffffff1673ffffffffffffffffffffffffffffffffffffffff168152602001908152602001600020604051806060016040529081600082018054600181600116156101000203166002900480601f016020809104026020016040519081016040528092919081815260200182805460018160011615610100020316600290048015610d3d5780601f10610d1257610100808354040283529160200191610d3d565b820191906000526020600020905b815481529060010190602001808311610d2057829003601f168201915b50505050508152602001600182018054600181600116156101000203166002900480601f016020809104026020016040519081016040528092919081815260200182805460018160011615610100020316600290048015610ddf5780601f10610db457610100808354040283529160200191610ddf565b820191906000526020600020905b815481529060010190602001808311610dc257829003601f168201915b505050505081526020016002820154815250509050919050565b6000600860003373ffffffffffffffffffffffffffffffffffffffff1673ffffffffffffffffffffffffffffffffffffffff168152602001908152602001600020600201541415610e7f576040517f08c379a0000000000000000000000000000000000000000000000000000000008152600401610e769061207b565b60405180910390fd5b600160009054906101000a900473ffffffffffffffffffffffffffffffffffffffff1673ffffffffffffffffffffffffffffffffffffffff166362ad1b8333600760009054906101000a900473ffffffffffffffffffffffffffffffffffffffff16600a60003373ffffffffffffffffffffffffffffffffffffffff1673ffffffffffffffffffffffffffffffffffffffff1681526020019081526020016000206000868152602001908152602001600020600101546040518463ffffffff1660e01b8152600401610f5393929190611e95565b600060405180830381600087803b158015610f6d57600080fd5b505af1158015610f81573d6000803e3d6000fd5b5050505050565b600080600860008473ffffffffffffffffffffffffffffffffffffffff1673ffffffffffffffffffffffffffffffffffffffff1681526020019081526020016000206002015414159050919050565b6000610fe36004611639565b905090565b610ff0611773565b600a60003373ffffffffffffffffffffffffffffffffffffffff1673ffffffffffffffffffffffffffffffffffffffff16815260200190815260200160002060008381526020019081526020016000206040518060c00160405290816000820160009054906101000a900460ff161515151581526020016000820160019054906101000a900460ff161515151581526020016000820160029054906101000a900460ff161515151581526020016000820160039054906101000a900460ff161515151581526020016000820160049054906101000a900460ff161515151581526020016001820154815250509050919050565b600a602052816000526040600020602052806000526040600020600091509150508060000160009054906101000a900460ff16908060000160019054906101000a900460ff16908060000160029054906101000a900460ff16908060000160039054906101000a900460ff16908060000160049054906101000a900460ff16908060010154905086565b6000600860003373ffffffffffffffffffffffffffffffffffffffff1673ffffffffffffffffffffffffffffffffffffffff1681526020019081526020016000206002015414156111f3576040517f08c379a00000000000000000000000000000000000000000000000000000000081526004016111ea9061207b565b60405180910390fd5b6111fd6004611623565b60006001151586151514156112385761123560096000898152602001908152602001600020600101548261164790919063ffffffff16565b90505b6001151585151514156112715761126e60096000898152602001908152602001600020600201548261164790919063ffffffff16565b90505b6001151584151514156112aa576112a760096000898152602001908152602001600020600301548261164790919063ffffffff16565b90505b6001151583151514156112e3576112e060096000898152602001908152602001600020600401548261164790919063ffffffff16565b90505b60011515821515141561131c5761131960096000898152602001908152602001600020600501548261164790919063ffffffff16565b90505b6040518060c001604052808715158152602001861515815260200185151581526020018415158152602001831515815260200182815250600a60003373ffffffffffffffffffffffffffffffffffffffff1673ffffffffffffffffffffffffffffffffffffffff168152602001908152602001600020600089815260200190815260200160002060008201518160000160006101000a81548160ff02191690831515021790555060208201518160000160016101000a81548160ff02191690831515021790555060408201518160000160026101000a81548160ff02191690831515021790555060608201518160000160036101000a81548160ff02191690831515021790555060808201518160000160046101000a81548160ff02191690831515021790555060a0820151816001015590505050505050505050565b61146161161b565b73ffffffffffffffffffffffffffffffffffffffff1660008054906101000a900473ffffffffffffffffffffffffffffffffffffffff1673ffffffffffffffffffffffffffffffffffffffff16146114ee576040517f08c379a00000000000000000000000000000000000000000000000000000000081526004016114e59061209b565b60405180910390fd5b600073ffffffffffffffffffffffffffffffffffffffff168173ffffffffffffffffffffffffffffffffffffffff16141561155e576040517f08c379a00000000000000000000000000000000000000000000000000000000081526004016115559061201b565b60405180910390fd5b8073ffffffffffffffffffffffffffffffffffffffff1660008054906101000a900473ffffffffffffffffffffffffffffffffffffffff1673ffffffffffffffffffffffffffffffffffffffff167f8be0079c531659141344cd1fd0a4f28419497f9722a3daafe3b4186f6b6457e060405160405180910390a3806000806101000a81548173ffffffffffffffffffffffffffffffffffffffff021916908373ffffffffffffffffffffffffffffffffffffffff16021790555050565b600033905090565b6001816000016000828254019250508190555050565b600081600001549050919050565b600080828401905083811015611692576040517f08c379a00000000000000000000000000000000000000000000000000000000081526004016116899061205b565b60405180910390fd5b8091505092915050565b828054600181600116156101000203166002900490600052602060002090601f016020900481019282601f106116dd57805160ff191683800117855561170b565b8280016001018555821561170b579182015b8281111561170a5782518255916020019190600101906116ef565b5b50905061171891906117b3565b5090565b6040518060c001604052806060815260200160008152602001600081526020016000815260200160008152602001600081525090565b60405180606001604052806060815260200160608152602001600081525090565b6040518060c00160405280600015158152602001600015158152602001600015158152602001600015158152602001600015158152602001600081525090565b5b808211156117cc5760008160009055506001016117b4565b5090565b6000813590506117df8161229d565b92915050565b6000813590506117f4816122b4565b92915050565b600082601f83011261180b57600080fd5b813561181e61181982612162565b612135565b9150808252602083016020830185838301111561183a57600080fd5b61184583828461224a565b50505092915050565b60008135905061185d816122cb565b92915050565b60006020828403121561187557600080fd5b6000611883848285016117d0565b91505092915050565b6000806040838503121561189f57600080fd5b60006118ad858286016117d0565b92505060206118be8582860161184e565b9150509250929050565b600080604083850312156118db57600080fd5b600083013567ffffffffffffffff8111156118f557600080fd5b611901858286016117fa565b925050602083013567ffffffffffffffff81111561191e57600080fd5b61192a858286016117fa565b9150509250929050565b60008060008060008060c0878903121561194d57600080fd5b600087013567ffffffffffffffff81111561196757600080fd5b61197389828a016117fa565b965050602061198489828a0161184e565b955050604061199589828a0161184e565b94505060606119a689828a0161184e565b93505060806119b789828a0161184e565b92505060a06119c889828a0161184e565b9150509295509295509295565b6000602082840312156119e757600080fd5b60006119f58482850161184e565b91505092915050565b60008060008060008060c08789031215611a1757600080fd5b6000611a2589828a0161184e565b9650506020611a3689828a016117e5565b9550506040611a4789828a016117e5565b9450506060611a5889828a016117e5565b9350506080611a6989828a016117e5565b92505060a0611a7a89828a016117e5565b9150509295509295509295565b611a9081612214565b82525050565b611a9f816121cc565b82525050565b611aae816121de565b82525050565b611abd816121de565b82525050565b6000611ace8261218e565b611ad881856121aa565b9350611ae8818560208601612259565b611af18161228c565b840191505092915050565b6000611b078261218e565b611b1181856121bb565b9350611b21818560208601612259565b611b2a8161228c565b840191505092915050565b6000611b426026836121bb565b91507f4f776e61626c653a206e6577206f776e657220697320746865207a65726f206160008301527f64647265737300000000000000000000000000000000000000000000000000006020830152604082019050919050565b6000611ba86025836121bb565b91507f6f6e6c79206e6f6e436c69656e74732063616e2075736520746869732066756e60008301527f6374696f6e0000000000000000000000000000000000000000000000000000006020830152604082019050919050565b6000611c0e601b836121bb565b91507f536166654d6174683a206164646974696f6e206f766572666c6f7700000000006000830152602082019050919050565b6000611c4e6022836121bb565b91507f6f6e6c7920636c69656e74732063616e2075736520746869732066756e63746960008301527f6f6e0000000000000000000000000000000000000000000000000000000000006020830152604082019050919050565b6000611cb46020836121bb565b91507f4f776e61626c653a2063616c6c6572206973206e6f7420746865206f776e65726000830152602082019050919050565b6000611cf4600083612199565b9150600082019050919050565b60006060830160008301518482036000860152611d1e8282611ac3565b91505060208301518482036020860152611d388282611ac3565b9150506040830151611d4d6040860182611e5c565b508091505092915050565b600060c0830160008301518482036000860152611d758282611ac3565b9150506020830151611d8a6020860182611e5c565b506040830151611d9d6040860182611e5c565b506060830151611db06060860182611e5c565b506080830151611dc36080860182611e5c565b5060a0830151611dd660a0860182611e5c565b508091505092915050565b60c082016000820151611df76000850182611aa5565b506020820151611e0a6020850182611aa5565b506040820151611e1d6040850182611aa5565b506060820151611e306060850182611aa5565b506080820151611e436080850182611aa5565b5060a0820151611e5660a0850182611e5c565b50505050565b611e658161220a565b82525050565b611e748161220a565b82525050565b6000602082019050611e8f6000830184611a96565b92915050565b600060a082019050611eaa6000830186611a87565b611eb76020830185611a87565b611ec46040830184611e6b565b8181036060830152611ed581611ce7565b90508181036080830152611ee881611ce7565b9050949350505050565b6000602082019050611f076000830184611ab4565b92915050565b600060c082019050611f226000830189611ab4565b611f2f6020830188611ab4565b611f3c6040830187611ab4565b611f496060830186611ab4565b611f566080830185611ab4565b611f6360a0830184611e6b565b979650505050505050565b60006060820190508181036000830152611f888186611afc565b90508181036020830152611f9c8185611afc565b9050611fab6040830184611e6b565b949350505050565b600060c0820190508181036000830152611fcd8189611afc565b9050611fdc6020830188611e6b565b611fe96040830187611e6b565b611ff66060830186611e6b565b6120036080830185611e6b565b61201060a0830184611e6b565b979650505050505050565b6000602082019050818103600083015261203481611b35565b9050919050565b6000602082019050818103600083015261205481611b9b565b9050919050565b6000602082019050818103600083015261207481611c01565b9050919050565b6000602082019050818103600083015261209481611c41565b9050919050565b600060208201905081810360008301526120b481611ca7565b9050919050565b600060208201905081810360008301526120d58184611d01565b905092915050565b600060208201905081810360008301526120f78184611d58565b905092915050565b600060c0820190506121146000830184611de1565b92915050565b600060208201905061212f6000830184611e6b565b92915050565b6000604051905081810181811067ffffffffffffffff8211171561215857600080fd5b8060405250919050565b600067ffffffffffffffff82111561217957600080fd5b601f19601f8301169050602081019050919050565b600081519050919050565b600082825260208201905092915050565b600082825260208201905092915050565b600082825260208201905092915050565b60006121d7826121ea565b9050919050565b60008115159050919050565b600073ffffffffffffffffffffffffffffffffffffffff82169050919050565b6000819050919050565b600061221f82612226565b9050919050565b600061223182612238565b9050919050565b6000612243826121ea565b9050919050565b82818337600083830152505050565b60005b8381101561227757808201518184015260208101905061225c565b83811115612286576000848401525b50505050565b6000601f19601f8301169050919050565b6122a6816121cc565b81146122b157600080fd5b50565b6122bd816121de565b81146122c857600080fd5b50565b6122d48161220a565b81146122df57600080fd5b5056fea2646970667358221220a7d8093a108d2fd0422c158c5c49b5379037dce7790bf15ddcac2ed4f4cba7fd64736f6c634300060c0033",
  "immutableReferences": {},
  "source": "// SPDX-License-Identifier: MIT\npragma solidity ^0.6.0;\npragma experimental ABIEncoderV2;\nimport \"./TourToken.sol\";\nimport \"@openzeppelin/contracts/utils/Counters.sol\";\nimport \"@openzeppelin/contracts/access/Ownable.sol\";\nimport \"@openzeppelin/contracts/math/SafeMath.sol\";\n\ncontract Tourisme is Ownable{\n    TourToken private token;\n\n    using SafeMath for uint256;\n\n    using Counters for Counters.Counter;\n    Counters.Counter private _clientIds;\n    Counters.Counter private _offerIds;\n    Counters.Counter private _reservationIds;\n\n    address payable _agence;\n\n    address _addrClient;\n    address payable _addrAgence;\n\n \n    mapping (address => Client) public clients;\n\n    mapping (uint256 => Offer) public offers;\n\n    mapping (address => mapping(uint256 => Reservation)) public reservationByUser;\n\n    //mapping (address => uint256) public balances_client;\n\n    //mapping (address => uint256) public balances_agence;\n\n    constructor(address owner) public {\n        transferOwnership(owner);\n    }\n\n    function setTourToken(address tourAddress) external onlyOwner {\n        token = TourToken(tourAddress);\n    }\n\n    struct Client {\n        string name;\n        string email;\n        uint256 dateRegistration;\n    }\n\n    struct Offer {\n        string destination;\n        uint256 priceTransport;\n        uint256 priceTravel;\n        uint256 priceRestauration;\n        uint256 priceActivity;\n        uint256 priceTours;\n    }\n\n    struct Reservation {\n        bool isTransport;\n        bool isTravel;\n        bool isRestauration;\n        bool isActivity;\n        bool isTours;\n        uint256 priceinTokens;\n    }\n\n    modifier onlyNonMembers() {\n        require(clients[msg.sender].dateRegistration == 0, 'only nonClients can use this function');\n        _;\n    }\n\n    modifier onlyMembers() {\n        require(clients[msg.sender].dateRegistration != 0, 'only clients can use this function');\n        _;\n    }\n\n    function register(string memory _name, string memory _email) public onlyNonMembers {\n        _clientIds.increment();\n        clients[msg.sender] = Client(_name, _email, block.timestamp);\n    }\n\n    function isRegistered(address _addr) public view returns (bool) {\n        return clients[_addr].dateRegistration != 0;\n    }\n\n    function clientId() public view returns (uint256) {\n        return _clientIds.current();\n    }\n\n    function getClient(address _addr) public onlyOwner view returns (Client memory) {\n        return clients[_addr];\n    }\n \n    function addOffer(string memory _destination, uint256 _priceTransport, uint256 _priceTravel, uint256 _priceRestauration, uint256 _priceActivity, uint256 _priceTours) public onlyOwner {\n        _offerIds.increment();\n        offers[_offerIds.current()] = Offer(_destination, _priceTransport, _priceTravel, _priceRestauration, _priceActivity, _priceTours);\n    }\n\n    function offerId() public view returns (uint256) {\n        return _offerIds.current();\n    }\n\n    function getOffer(uint256 _id) public view returns (Offer memory) {\n        return offers[_id];\n    } \n\n    function chooseOffer(uint256 _id, bool _isTransport, bool _isTravel, bool _isRestauration, bool _isActivities, bool _isTours) public onlyMembers {\n        _reservationIds.increment();\n        uint256 totalPrice;\n        if (_isTransport == true) {\n        totalPrice = totalPrice.add(offers[_id].priceTransport);\n        }\n        if (_isTravel == true) {\n        totalPrice = totalPrice.add(offers[_id].priceTravel);\n        }\n        if (_isRestauration == true) {\n        totalPrice = totalPrice.add(offers[_id].priceRestauration);\n        }\n        if (_isActivities == true) {\n        totalPrice = totalPrice.add(offers[_id].priceActivity);\n        }\n        if (_isTours == true) {\n        totalPrice = totalPrice.add(offers[_id].priceTours);\n        }\n        reservationByUser[msg.sender][_id] = Reservation(_isTransport, _isTravel, _isRestauration, _isActivities, _isTours, totalPrice);\n    }\n\n    function reservationId() public view returns (uint256) {\n        return _reservationIds.current();\n    }\n\n    function getReservation(uint256 _id) public view returns (Reservation memory) {\n        return reservationByUser[msg.sender][_id];\n    }\n \n    function reserveByClient(uint _id) public onlyMembers {\n        token.operatorSend(msg.sender, _addrAgence, reservationByUser[msg.sender][_id].priceinTokens, \"\", \"\");\n    }\n}",
  "sourcePath": "/home/hephka/EthersJS/Projets/Certification/contracts/Tourisme.sol",
  "compiler": {
    "name": "solc",
    "version": "0.6.12+commit.27d51765.Linux.g++"
  },
  "schemaVersion": "3.3.1",
  "updatedAt": "2020-12-09T15:35:16.445Z",
  "devdoc": {
    "kind": "dev",
    "methods": {
      "owner()": {
        "details": "Returns the address of the current owner."
      },
      "renounceOwnership()": {
        "details": "Leaves the contract without owner. It will not be possible to call `onlyOwner` functions anymore. Can only be called by the current owner. NOTE: Renouncing ownership will leave the contract without an owner, thereby removing any functionality that is only available to the owner."
      },
      "transferOwnership(address)": {
        "details": "Transfers ownership of the contract to a new account (`newOwner`). Can only be called by the current owner."
      }
    },
    "version": 1
  },
  "userdoc": {
    "kind": "user",
    "methods": {},
    "version": 1
  }
}